:100000000C9472000C9494000C9494000C94940042
:100010000C9494000C9494000C9494000C94940010
:100020000C9494000C9494000C9494000C94940000
:100030000C9494000C9494000C9494000C949400F0
:100040000C9494000C9494000C9494000C949400E0
:100050000C9494000C9494000C9494000C949400D0
:100060000C9494000C944E030C9494000C941F0375
:100070000C9494000C9494000C9494000C949400B0
:100080000C9494000C9494000C9494000C949400A0
:100090000C9494000C9494000C9494000C94940090
:1000A0000C9494000C9494000C9494000C94940080
:1000B0000C9494000C9494000C9494000C94940070
:1000C0000C9494000C9494000C9494000C94940060
:1000D0000C9494000C9494000C9494000C94940050
:1000E0000C94940011241FBECFEFD1E2DEBFCDBF30
:1000F00000E00CBF12E0A0E0B2E0EAE0F4E100E0D2
:100100000BBF02C007900D92A239B107D9F71BBEF1
:1001100013E0A2E9B2E001C01D92AC32B107E1F7F1
:100120000E948D040C94030A0C9400001092DE02CD
:100130001092DD021092DC021092DB021092E002BB
:100140001092DF0210929A02109299020895482F9D
:100150002091DF023091E0022F5F3F4FC90160E440
:1001600070E00E94F0049C018091990290919A02A3
:100170002817390759F03093E0022093DF022F51FE
:100180003D4FF901408381E090E0089580E090E0E8
:100190000895482F2091DD023091DE022F5F3F4FFE
:1001A000C90160E470E00E94F0049C018091DB02D0
:1001B0009091DC022817390759F03093DE02209322
:1001C000DD0225563D4FF901408381E090E008951E
:1001D00080E090E008958091990290919A02209198
:1001E000DF023091E0022817390779F0019660E4C8
:1001F00070E00E94F00490939A02809399028F51CC
:100200009D4FFC01808190E0089580E090E008958A
:100210008091DB029091DC022091DD023091DE02C0
:100220002817390779F0019660E470E00E94F00425
:100230009093DC028093DB0285569D4FFC01808108
:1002400090E0089580E090E008958FEF80930B0197
:1002500080930A01089510920B0110929202089562
:100260008FEF80930B0180939202089521E030E09C
:1002700002C0220F331F8A95E2F7209580919202E7
:1002800028232093920220930B01089521E030E06F
:1002900002C0220F331F8A95E2F780919202822BCF
:1002A0008093920280930B0108958095809392022F
:1002B00080930B01089584E090E00E941705089553
:1002C0000E94AD050895FC018091930290919402E3
:1002D000009739F4F0939402E09393021382128210
:1002E000089593838283F0939402E0939302089598
:1002F000E0919302F0919402309731F4909394023C
:100300008093930208C0F9012281338121153105C0
:10031000D1F793838283FC01138212820895CF93D5
:10032000DF93FC0120919302309194022115310555
:1003300031F040815181D901C0E0D0E00FC09093ED
:10034000940280939302138212821DC012968D91A3
:100350009C911397ED01009739F0DC018D919C91F0
:1003600011978417950794F3209739F433832283E8
:10037000F0939402E093930206C08A819B81938359
:100380008283FB83EA83DF91CF9108950F931F93BC
:10039000CF93DF938AE090E00E94E706C09193023A
:1003A000D091940200E012E013C000D00F92EDB79C
:1003B000FEB71283018388819981948383830E948D
:1003C000D5060A80DB81C02D0F900F900F900F9003
:1003D000209759F78AE090E00E94E706DF91CF91DD
:1003E0001F910F91089509C0FC0122813381309340
:1003F0009402209393020E94AD0580919302909104
:100400009402009789F708951F93CF93DF93CDB798
:10041000DEB728970FB6F894DEBF0FBECDBF0097AA
:1004200019F0FC01108101C011E68EE390E00E94FA
:10043000E7064091260350912703CE01019668E01C
:1004400070E00E94A1060097A1F00E945B01298143
:10045000FC0120831182183619F0143739F403C0D7
:100460000E946301E2CF0E947801DFCF0E948F01DA
:10047000DCCF0E94C6010E94F30128960FB6F894C3
:10048000DEBF0FBECDBFDF91CF911F910895CF93F7
:10049000DF93FC0162E070E00E94F004EB0122E0D7
:1004A00030E008C0CF01B9010E94F004009741F08C
:1004B0002F5F3F4FC217D307ACF781E090E002C037
:1004C00080E090E0DF91CF910895CF92DF92EF929C
:1004D000FF920F931F93CF93DF93009721F00E9419
:1004E00046067C0104C098EEE92E93E0F92EC2E0A6
:1004F000D0E000E010E086E0C82E82E0D82E16C0E2
:10050000CE010E944702009781F00F5F1F4F00D07D
:100510000F92EDB7FEB7D282C182D483C3830E940B
:10052000D5060F900F900F900F902196EC16FD06B8
:100530003CF700D00F928CE192E0EDB7FEB79283CA
:100540008183148303830E94D5060F900F900F9030
:100550000F90DF91CF911F910F91FF90EF90DF905F
:10056000CF900895F8940E94EB0078948823D1F3FB
:10057000843011F090E008958FEF9FEF0895CF93AE
:10058000C82F8A3019F48DE00E94BF02F894809140
:100590002103882359F4C093C60081E0809321038E
:1005A0000AC0789486EF8A95F1F7F8948C2F0E9410
:1005B000C9000097B1F3789481E090E0CF9108955D
:1005C00084E392E0909329038093280386E292E0EB
:1005D00090932703809326030E9496001092210394
:1005E0001092C50087E08093C400E0ECF0E08081C9
:1005F00082608083E1ECF0E080818860808380818C
:100600008064808380818061808380818068808332
:100610000895CF93C82F8A3019F48DE00E94090302
:1006200080912103882331F4C093C60081E0809338
:10063000210303C08C2F0E94C900CF9108951F92FF
:100640000F920FB60F920BB60F9211242F933F9378
:100650004F935F936F937F938F939F93AF93BF93CA
:10066000EF93FF930E940801882319F4109221034D
:1006700002C08093C600FF91EF91BF91AF919F910F
:100680008F917F916F915F914F913F912F910F903B
:100690000BBE0F900FBE0F901F9018951F920F92D8
:1006A0000FB60F920BB60F9211242F933F934F93D7
:1006B0005F936F937F938F939F93AF93BF93CF93EA
:1006C000EF93FF93C091C600C43031F0CD3009F4F0
:1006D000CAE08C2F0E9409038C2F0E94A700FF9173
:1006E000EF91CF91BF91AF919F918F917F916F913A
:1006F0005F914F913F912F910F900BBE0F900FBEC6
:100700000F901F9018958EE090E00E9417050895B5
:10071000EF92FF920F931F93CF93DF93F82EE92E62
:100720008B010E948303EC01DC011296EF2DFE2D5C
:100730008AE001900D928150E1F719830883E091DE
:100740009502F0919602309729F4D0939602C093C7
:1007500095022FC040E050E020E030E001C0FD01F4
:1007600080819181280F391F2017310734F4A48527
:10077000B585AF01109799F701C0DF01411551050B
:1007800079F48D919C911197801B910B11969C93FC
:100790008E93BD87AC87D0939602C093950224C0F8
:1007A000109751F4021B130B19830883FA01D587A4
:1007B000C4871D861C8618C08D919C911197B90124
:1007C000681B790B9801261B370B398328838D9181
:1007D0009C911197821B930B11969C938E93FA0117
:1007E000D587C487BD87AC87DF91CF911F910F91CB
:1007F000FF90EF900895EF92FF920F931F93CF9386
:10080000DF938AE090E00E94E706C0919502D091C4
:10081000960200E010E082E4E82E82E0F82E20C08C
:1008200088819981080F191F00D000D0EDB7FEB75D
:100830003196ADB7BEB71296FC92EE9211979383A4
:100840008283158304830E94D5060C84DD85C02D28
:100850008DB79EB706960FB6F8949EBF0FBE8DBF9C
:100860002097F1F68AE090E00E94E706DF91CF91B1
:100870001F910F91FF90EF90089509C0FC0124850E
:10088000358530939602209395020E94AD058091A4
:10089000950290919602009789F708950F931F9300
:1008A000CF93DF93CDB7DEB76A970FB6F894DEBF6C
:1008B0000FBECDBF0DE412E00F920F92EDB7FEB761
:1008C000128301830E94D5060F900F90409126035A
:1008D00050912703CE010B9660E170E00E94A106C3
:1008E000009761F0CE010B960E944606BC0100976E
:1008F00029F0CE0101960E948803DECF0E94FB03FF
:100900000E943D046A960FB6F894DEBF0FBECDBFBD
:10091000DF91CF911F910F910895CF93DF93CDB7C2
:10092000DEB7C058D0400FB6F894DEBF0FBECDBFC3
:100930000E94E002789481E5C82E82E0D82E0F92C2
:100940000F92EDB7FEB7D282C1820E94D5060F90FA
:100950000F904091260350912703CE01019660E845
:1009600070E00E94A1060097B1F1CE01019664E506
:1009700072E00E9464068C01009709F380E090E029
:1009800064E572E00E9464067C01C80169E572E0DA
:100990000E946906009721F4C7010E946502CFCF2B
:1009A000C8016FE572E00E946906009721F4C70153
:1009B0000E940402C4CFC80164E672E00E94690686
:1009C000009721F4C7010E944E04B9CF8AE692E055
:1009D0000E94EE06B4CF86E792E00E94EE06FFCFBB
:1009E00097FB092E07260AD077FD04D00CD006D03D
:1009F00000201AF4709561957F4F0895F6F7909551
:100A000081959F4F0895AA1BBB1B51E107C0AA1FE8
:100A1000BB1FA617B70710F0A61BB70B881F991F9F
:100A20005A95A9F780959095BC01CD010895CF9373
:100A3000DF93AC018230910510F442E050E0E09188
:100A40002403F091250320E030E0A0E0B0E024C0D2
:100A50008081918184179507D0F08417950771F4F0
:100A600082819381109729F013969C938E9312970D
:100A70002CC0909325038093240327C021153105B2
:100A800019F08217930718F49C01BD01EF019281C0
:100A90008381DF01E92FF82F3097D1F62115310539
:100AA000F9F0C901841B950B8430910580F48A818B
:100AB0009B816115710521F0FB019383828304C042
:100AC0009093250380932403FE01329642C0FE01D9
:100AD000E80FF91F4193519302979983888339C096
:100AE0008091220390912303009741F480918D021D
:100AF00090918E02909323038093220320918B0286
:100B000030918C022115310541F42DB73EB780910B
:100B10008F0290919002281B390BE0912203F091F3
:100B20002303E217F30798F42E1B3F0B2417350716
:100B300070F0CA0102962817390748F08E0F9F1FE0
:100B400090932303809322034193519302C0E0E0EA
:100B5000F0E0CF01DF91CF9108950F931F93CF93D2
:100B6000DF939C01009709F48CC0DC011297139667
:100B70001C921E92129760912403709125036115B7
:100B8000710589F48D919C911197820F931F20918B
:100B90002203309123032817390769F5B093230303
:100BA000A09322036EC0FB0140E050E001C0FC01B5
:100BB000EA17FB0730F482819381AF010097B9F700
:100BC0001FC0E9012297FB83EA8308811981C901CB
:100BD000800F911F8E179F0759F480819181800F9C
:100BE000911F029699838883828193819B838A8354
:100BF0004115510529F4B0932503A093240341C066
:100C0000FA01B383A283C191D191EC0FFD1FAE17FE
:100C1000BF0781F4F901929182918C0F9D1F02967A
:100C2000DA0111969C938E938281938113969C9303
:100C30008E931297E0E0F0E002C0FB01BC01DB0103
:100C400012968D919C9113970097B9F7CB0102965C
:100C50002D913C911197820F931F20912203309187
:100C600023032817390769F4309729F410922503D4
:100C70001092240302C013821282709323036093A4
:100C80002203DF91CF911F910F910895FC018827D6
:100C90009927E89421912032E9F3293010F02E3081
:100CA000C8F32B3241F02D3239F4689404C00E940D
:100CB0009906820F911D219120532A30C0F31EF412
:100CC000909581959F4F089547E952E00E947206E2
:100CD0000895FB01DC018D91019080190110D9F379
:100CE000990B0895FA01A191B081009719F410971A
:100CF000E1F0CD01DC01CD010D90002011F4C00127
:100D000013C0FB012191222319F02015D9F7F3CF4D
:100D1000FB012191201519F41E92119606C0222381
:100D2000C1F70D900020A1F7D001FA01A193B08383
:100D300008957AE0979F902D879F802D910D112423
:100D40000895CF92DF92EF92FF920F931F93CF936C
:100D5000DF938C016A01FA01838180FF1AC01616A5
:100D60001706BCF47B01E8010EC0C6010E943909D8
:100D7000FFEF8F3F9F0769F089930894E108F1081E
:100D80008A30910521F021E0E216F10471F7188212
:100D900002C000E010E0C801DF91CF911F910F91D8
:100DA000FF90EF90DF90CF900895CF93DF93CDB772
:100DB000DEB7FE0136966191719180912803909182
:100DC0002903AF010E941C07DF91CF910895609124
:100DD0002803709129030E94790908950F931F93A6
:100DE000CF93DF938C01E0912803F0912903838155
:100DF00081FF1AC0C0E0D0E005C01995009711F03E
:100E0000CFEFDFEFF80181918F016091280370919E
:100E10002903DB011896ED91FC911997882369F756
:100E20008AE01995009711F0CFEFDFEFCE01DF9147
:100E3000CF911F910F9108952F923F924F925F9201
:100E40006F927F928F929F92AF92BF92CF92DF92DA
:100E5000EF92FF920F931F93CF93DF93CDB7DEB73F
:100E60002D970FB6F894DEBF0FBECDBF3C017D8736
:100E70006C875A01FC0117821682838181FFC8C1E9
:100E80002E010894411C511CF3019381EC85FD85D2
:100E900093FD859193FF8191FD87EC87882309F469
:100EA000B3C1853241F493FD859193FF8191FD8714
:100EB000EC87853229F490E0B3010E947909E4CFF0
:100EC000FF24EE2410E01032B0F48B3269F08C3243
:100ED00028F4803251F0833271F40BC08D3239F036
:100EE000803349F411602CC01260146029C018606E
:100EF00027C0106125C017FD2EC0282F20532A308F
:100F000098F416FF08C08F2D880FF82EFF0CFF0CE9
:100F1000F80EF20E15C08E2D880FE82EEE0CEE0C9A
:100F2000E80EE20E10620CC08E3221F416FD6CC188
:100F3000106406C08C3611F4106802C0883659F46B
:100F4000EC85FD8593FD859193FF8191FD87EC876D
:100F5000882309F0B8CF982F9554933018F0905209
:100F6000933038F424E030E0A20EB31E3FE339831F
:100F70000FC0833631F0833781F0833509F05AC0D2
:100F800022C0F5018081898322E030E0A20EB31EE9
:100F900021E0C22ED12C420114C092E0292E312C26
:100FA0002A0C3B1CF5018080918016FF03C06F2D39
:100FB00070E002C06FEF7FEFC4010E942E096C0148
:100FC00051011F7715C082E0282E312C2A0C3B1CC2
:100FD000F5018080918016FF03C06F2D70E002C084
:100FE0006FEF7FEFC4010E9423096C01106851016B
:100FF00013FD1CC006C080E290E0B3010E94790995
:10100000EA948E2D90E0C816D906A8F30FC0F4011B
:1010100017FD859117FF81914F0190E0B3010E9468
:101020007909E110EA940894C108D108C114D104E7
:1010300071F7E7C0843611F0893651F5F50117FFD5
:1010400007C080819181A281B38124E030E008C093
:1010500080819181AA2797FDA095BA2F22E030E0E8
:10106000A20EB31E012F0F76B7FF08C0B095A09552
:10107000909581959F4FAF4FBF4F0068BC01CD0148
:10108000A2012AE030E00E94A509D82ED4183FC062
:10109000853721F41F7E2AE030E020C0197F8F368B
:1010A000A9F0803720F4883509F0AEC00BC0803736
:1010B00021F0883709F0A8C001C0106114FF09C0F1
:1010C000146007C014FF08C0166006C028E030E0B6
:1010D00005C020E130E002C020E132E0F50117FF59
:1010E00007C0608171818281938144E050E006C035
:1010F0006081718180E090E042E050E0A40EB51E76
:10110000A2010E94A509D82ED418012F0F7706FF3F
:1011100009C00E7FDF1430F404FF06C002FD04C0D6
:101120000F7E02C01D2D01C01F2D802F90E004FFF7
:101130000CC0FE01ED0DF11D2081203311F4097E5C
:1011400009C002FF06C01E5F05C086789070009738
:1011500009F01F5F802E992403FD12C000FF0DC00F
:10116000FD2C1E1550F4FE0CF11A1E2D06C080E257
:1011700090E0B3010E9479091F5F1E15C0F304C0FF
:101180001E1510F4E11A01C0EE2484FE0FC080E3A6
:1011900090E0B3010E94790982FE1FC081FE03C066
:1011A00088E590E010C088E790E00DC0C401867823
:1011B0009070009791F081FC02C080E201C08BE248
:1011C00007FD8DE290E0B3010E94790906C080E33B
:1011D00090E0B3010E947909FA94DF14C0F3DA9425
:1011E000F201ED0DF11D808190E0B3010E947909BB
:1011F000DD20A9F706C080E290E0B3010E947909E2
:10120000EA94EE20C1F740CEF3018681978102C0B7
:101210008FEF9FEF2D960FB6F894DEBF0FBECDBFB8
:10122000DF91CF911F910F91FF90EF90DF90CF90C2
:10123000BF90AF909F908F907F906F905F904F90F6
:101240003F902F900895FC0105906150704001106F
:10125000D8F7809590958E0F9F1F0895FC016150DF
:10126000704001900110D8F7809590958E0F9F1FC8
:101270000895CF93DF93EC012B8120FF35C026FF2B
:1012800009C02F7B2B838E819F8101969F838E8344
:101290008A8128C022FF0FC0E881F98180819927C7
:1012A00087FD9095009719F420622B831DC031961D
:1012B000F983E88311C0EA85FB85CE01199597FF74
:1012C0000BC02B813FEF8F3F930711F480E101C0EA
:1012D00080E2822B8B8308C02E813F812F5F3F4F9E
:1012E0003F832E8390E002C08FEF9FEFDF91CF917D
:1012F00008950F931F93CF93DF938C01EB018B81A4
:1013000081FF1BC082FF0DC02E813F818C819D819A
:101310002817390764F4E881F9810193F983E88398
:1013200006C0E885F985802F1995009731F48E81E4
:101330009F8101969F838E8302C00FEF1FEFC8012C
:10134000DF91CF911F910F910895FA01AA272830BC
:1013500051F1203181F1E8946F936E7F6E5F7F4F82
:101360008F4F9F4FAF4FB1E03ED0B4E03CD0670FFE
:10137000781F891F9A1FA11D680F791F8A1F911D51
:10138000A11D6A0F711D811D911DA11D20D009F4A1
:1013900068943F912AE0269F11243019305D3193E3
:1013A000DEF6CF010895462F4770405D4193B3E0CC
:1013B0000FD0C9F7F6CF462F4F70405D4A3318F073
:1013C000495D31FD4052419302D0A9F7EACFB4E024
:1013D000A6959795879577956795BA95C9F70097DC
:1013E0006105710508959B01AC010A2E069457957D
:1013F000479537952795BA95C9F7620F731F841FD4
:0A140000951FA01D0895F894FFCF7A
:10140A002D2D3E25630025642069732061207072AA
:10141A00696D65206E756D6265720A00636F756E1F
:10142A00743D25640A00000000010000000000006D
:10143A00B20200000000000200000000BF0200002B
:10144A0000002D2D3E25642825642920003E3E20DB
:10145A0000242000200A0D09007072696D65006C75
:10146A006973740074696D6572006E6F7420636FBE
:10147A006D6D616E64006C6F676F75742C20676F99
:10148A006F6420627965202121210000002C03204D
:02149A00000050
:00000001FF
