:100000000C9472000C9494000C9494000C94940042
:100010000C9494000C9494000C9494000C94940010
:100020000C9494000C9494000C9494000C94940000
:100030000C9494000C9494000C9494000C949400F0
:100040000C9494000C9494000C9494000C949400E0
:100050000C9494000C9494000C9494000C949400D0
:100060000C9494000C9488020C9494000C94590203
:100070000C9494000C9494000C9494000C949400B0
:100080000C9494000C9494000C9494000C949400A0
:100090000C9494000C9494000C9494000C94940090
:1000A0000C9494000C9494000C9494000C94940080
:1000B0000C9494000C9494000C9494000C94940070
:1000C0000C9494000C9494000C9494000C94940060
:1000D0000C9494000C9494000C9494000C94940050
:1000E0000C94940011241FBECFEFD1E2DEBFCDBF30
:1000F00000E00CBF12E0A0E0B2E0ECE2FCE000E0C7
:100100000BBF02C007900D92A834B107D9F71BBEF0
:1001100013E0A8E4B2E001C01D92AE35B107E1F7EB
:100120000E94B2020C9414060C94000010929202E9
:10013000109291021092900210928F0210929402EB
:100140001092930210924C0210924B02089510925A
:100150009202109291021092900210928F021092CD
:1001600094021092930210924C0210924B02089546
:10017000482F20914D0230914E022F5F3F4FC90111
:1001800060E470E00E94FD029C0180914902909120
:100190004A022817390759F030934E0220934D0236
:1001A0002B563D4FF901408381E090E0089580E0B7
:1001B00090E008958091490290914A0220914D0269
:1001C00030914E022817390779F0019660E470E00B
:1001D0000E94FD0290934A02809349028B569D4FE4
:1001E000FC01808190E0089580E090E00895482F20
:1001F00020919302309194022F5F3F4FC90160E438
:1002000070E00E94FD029C0180914B0290914C0293
:100210002817390759F030939402209393022B52F8
:100220003D4FF901408381E090E0089580E090E047
:100230000895482F20919102309192022F5F3F4FF5
:10024000C90160E470E00E94FD029C0180918F0270
:10025000909190022817390759F030939202209319
:100260009102215B3D4FF901408381E090E00895C8
:1002700080E090E0089580914B0290914C02209193
:100280009302309194022817390779F0019660E4BF
:1002900070E00E94FD0290934C0280934B028B52BF
:1002A0009D4FFC01808190E0089580E090E00895EA
:1002B00080918F0290919002209191023091920250
:1002C0002817390779F0019660E470E00E94FD027A
:1002D0009093900280938F02815B9D4FFC018081FF
:1002E00090E0089580E090E008958FEF80930B01F7
:1002F00080930A01089510920B011092480208950C
:100300008FEF80930B0180934802089521E030E045
:1003100002C0220F331F8A95E2F720958091480290
:1003200028232093480220930B01089521E030E018
:1003300002C0220F331F8A95E2F780914802822B78
:100340008093480280930B01089580958093480222
:1003500080930B010895CF93C82F8A3099F48DE0D4
:100360000E94AB01F89480911703882381F4C09315
:10037000C60081E0809317030AC0789486EF8A95BF
:10038000F1F7F8948C2F0E9419010097B1F378943B
:1003900081E090E0CF9108958AE392E090935B032F
:1003A00080935A03109217030E9496001092C50082
:1003B00087E08093C400E0ECF0E08081826080837D
:1003C000E1ECF0E0808188608083808180648083BC
:1003D0008081806180838081806880830895CF934D
:1003E000DF93FC0162E070E00E94FD02EB0122E07D
:1003F00030E008C0CF01B9010E94FD02009741F032
:100400002F5F3F4FC217D307ACF781E090E002C0E7
:1004100080E090E0DF91CF910895CF92DF92EF924C
:10042000FF920F931F93CF93DF937C0100E010E0C6
:10043000C2E0D0E028E1C22E22E0D22E16C0CE01CA
:100440000E94EF01009781F00F5F1F4F00D00F92C5
:10045000EDB7FEB7D282C182D483C3830E942D033D
:100460000F900F900F900F902196EC16FD063CF721
:1004700000D00F928EE292E0EDB7FEB792838183B7
:10048000148303830E942D030F900F900F900F9001
:10049000DF91CF911F910F91FF90EF90DF90CF9060
:1004A0000895F8940E943B0178948823D1F390E05A
:1004B00008951F920F920FB60F920BB60F92112450
:1004C0002F933F934F935F936F937F938F939F935C
:1004D000AF93BF93EF93FF930E945801882319F4C1
:1004E0001092170302C08093C600FF91EF91BF9155
:1004F000AF919F918F917F916F915F914F913F91BC
:100500002F910F900BBE0F900FBE0F901F9018955C
:100510001F920F920FB60F920BB60F9211242F93CA
:100520003F934F935F936F937F938F939F93AF937B
:10053000BF93EF93FF938091C6000E94F700FF9155
:10054000EF91BF91AF919F918F917F916F915F914B
:100550004F913F912F910F900BBE0F900FBE0F90B8
:100560001F901895CF93DF93CDB7DEB7C058D0401A
:100570000FB6F894DEBF0FBECDBF0E94CC017894B9
:100580000F920F9280E0E82E82E0F82EEDB7FEB7D2
:10059000F282E1820E942D030F900F9000E010E0A4
:1005A000F8940E943B0178948823D1F38D30C1F3F5
:1005B000E1E0F0E0EC0FFD1FE00FF11F8A30C9F41D
:1005C0001082CE01019663E072E00E94240300973E
:1005D00029F480ED97E00E940D0204C087E092E0CC
:1005E0000E943F030F920F92EDB7FEB7E182F282B5
:1005F000D1CF80830F5F1F4FD3CF97FB092E0726E4
:100600000AD077FD04D00CD006D000201AF47095E3
:1006100061957F4F0895F6F7909581959F4F0895C6
:10062000AA1BBB1B51E107C0AA1FBB1FA617B70718
:1006300010F0A61BB70B881F991F5A95A9F7809534
:100640009095BC01CD010895FB01DC018D910190D5
:1006500080190110D9F3990B0895CF93DF93CDB78B
:10066000DEB7FE0136966191719180915A039091A7
:100670005B03AF010E946D03DF91CF9108950F934B
:100680001F93CF93DF938C01E0915A03F0915B03AA
:10069000838181FF1AC0C0E0D0E005C019950097A2
:1006A00011F0CFEFDFEFF80181918F0160915A03D4
:1006B00070915B03DB011896ED91FC9119978823EB
:1006C00069F78AE01995009711F0CFEFDFEFCE01BF
:1006D000DF91CF911F910F9108952F923F924F92EA
:1006E0005F926F927F928F929F92AF92BF92CF92C2
:1006F000DF92EF92FF920F931F93CF93DF93CDB7CB
:10070000DEB72D970FB6F894DEBF0FBECDBF3C010C
:100710007D876C875A01FC0117821682838181FFD5
:10072000C8C12E010894411C511CF3019381EC8532
:10073000FD8593FD859193FF8191FD87EC8788234B
:1007400009F4B3C1853241F493FD859193FF819102
:10075000FD87EC87853229F490E0B3010E948A0579
:10076000E4CFFF24EE2410E01032B0F48B3269F0B5
:100770008C3228F4803251F0833271F40BC08D3208
:1007800039F0803349F411602CC01260146029C024
:10079000186027C0106125C017FD2EC0282F2053D8
:1007A0002A3098F416FF08C08F2D880FF82EFF0C02
:1007B000FF0CF80EF20E15C08E2D880FE82EEE0CF1
:1007C000EE0CE80EE20E10620CC08E3221F416FD23
:1007D0006CC1106406C08C3611F4106802C08836F3
:1007E00059F4EC85FD8593FD859193FF8191FD87FB
:1007F000EC87882309F0B8CF982F9554933018F0E0
:100800009052933038F424E030E0A20EB31E3FE360
:1008100039830FC0833631F0833781F0833509F097
:100820005AC022C0F5018081898322E030E0A20E07
:10083000B31E21E0C22ED12C420114C092E0292E19
:10084000312C2A0C3B1CF5018080918016FF03C0DF
:100850006F2D70E002C06FEF7FEFC4010E947F0533
:100860006C0151011F7715C082E0282E312C2A0C13
:100870003B1CF5018080918016FF03C06F2D70E056
:1008800002C06FEF7FEFC4010E9474056C01106815
:10089000510113FD1CC006C080E290E0B3010E942C
:1008A0008A05EA948E2D90E0C816D906A8F30FC0E9
:1008B000F40117FD859117FF81914F0190E0B3017D
:1008C0000E948A05E110EA940894C108D108C11475
:1008D000D10471F7E7C0843611F0893651F5F5017E
:1008E00017FF07C080819181A281B38124E030E0AD
:1008F00008C080819181AA2797FDA095BA2F22E098
:1009000030E0A20EB31E012F0F76B7FF08C0B095DE
:10091000A095909581959F4FAF4FBF4F0068BC0148
:10092000CD01A2012AE030E00E94B605D82ED418ED
:100930003FC0853721F41F7E2AE030E020C0197FB8
:100940008F36A9F0803720F4883509F0AEC00BC08F
:10095000803721F0883709F0A8C001C0106114FF6A
:1009600009C0146007C014FF08C0166006C028E064
:1009700030E005C020E130E002C020E132E0F501C6
:1009800017FF07C0608171818281938144E050E04C
:1009900006C06081718180E090E042E050E0A40EEA
:1009A000B51EA2010E94B605D82ED418012F0F77CC
:1009B00006FF09C00E7FDF1430F404FF06C002FDFD
:1009C00004C00F7E02C01D2D01C01F2D802F90E09E
:1009D00004FF0CC0FE01ED0DF11D2081203311F448
:1009E000097E09C002FF06C01E5F05C086789070B0
:1009F000009709F01F5F802E992403FD12C000FFAD
:100A00000DC0FD2C1E1550F4FE0CF11A1E2D06C053
:100A100080E290E0B3010E948A051F5F1E15C0F3BB
:100A200004C01E1510F4E11A01C0EE2484FE0FC0AC
:100A300080E390E0B3010E948A0582FE1FC081FE20
:100A400003C088E590E010C088E790E00DC0C401C5
:100A500086789070009791F081FC02C080E201C01E
:100A60008BE207FD8DE290E0B3010E948A0506C08B
:100A700080E390E0B3010E948A05FA94DF14C0F38A
:100A8000DA94F201ED0DF11D808190E0B3010E9436
:100A90008A05DD20A9F706C080E290E0B3010E943C
:100AA0008A05EA94EE20C1F740CEF3018681978152
:100AB00002C08FEF9FEF2D960FB6F894DEBF0FBEEA
:100AC000CDBFDF91CF911F910F91FF90EF90DF90FD
:100AD000CF90BF90AF909F908F907F906F905F90DE
:100AE0004F903F902F900895FC0105906150704009
:100AF0000110D8F7809590958E0F9F1F0895FC01E7
:100B00006150704001900110D8F7809590958E0F3C
:100B10009F1F08950F931F93CF93DF938C01EB01D9
:100B20008B8181FF1BC082FF0DC02E813F818C8194
:100B30009D812817390764F4E881F9810193F983CD
:100B4000E88306C0E885F985802F1995009731F470
:100B50008E819F8101969F838E8302C00FEF1FEFCE
:100B6000C801DF91CF911F910F910895FA01AA2733
:100B7000283051F1203181F1E8946F936E7F6E5FE0
:100B80007F4F8F4F9F4FAF4FB1E03ED0B4E03CD08E
:100B9000670F781F891F9A1FA11D680F791F8A1F71
:100BA000911DA11D6A0F711D811D911DA11D20D0D8
:100BB00009F468943F912AE0269F11243019305D92
:100BC0003193DEF6CF010895462F4770405D419383
:100BD000B3E00FD0C9F7F6CF462F4F70405D4A33D0
:100BE00018F0495D31FD4052419302D0A9F7EACF98
:100BF000B4E0A6959795879577956795BA95C9F7C7
:100C000000976105710508959B01AC010A2E0694B9
:100C10005795479537952795BA95C9F7620F731F72
:0C0C2000841F951FA01D0895F894FFCFBD
:100C2C0024200061707000556E6B6E6F6E20636FC8
:100C3C006D6D616E642E2E00256420697320612019
:100C4C007072696D65206E756D6265720A00636FF6
:100C5C00756E743D25640A0001000000000200005E
:080C6C000000AB0100000000D4
:00000001FF
