:100000000C9472000C9494000C9494000C94940042
:100010000C9494000C9494000C9494000C94940010
:100020000C9494000C9494000C9494000C94940000
:100030000C9494000C9494000C9494000C949400F0
:100040000C9494000C9494000C9494000C949400E0
:100050000C9494000C9494000C9494000C949400D0
:100060000C9494000C9462020C9494000C9433024F
:100070000C9494000C9494000C9494000C949400B0
:100080000C9494000C9494000C9494000C949400A0
:100090000C9494000C9494000C9494000C94940090
:1000A0000C9494000C9494000C9494000C94940080
:1000B0000C9494000C9494000C9494000C94940070
:1000C0000C9494000C9494000C9494000C94940060
:1000D0000C9494000C9494000C9494000C94940050
:1000E0000C94940011241FBECFEFD1E2DEBFCDBF30
:1000F00000E00CBF12E0A0E0B2E0EAEDF1E100E0C8
:100100000BBF02C007900D92AC37B107D9F71BBEE9
:1001100013E0ACE7B2E001C01D92A431B107E1F7F2
:100120000E9480030C94EB080C9400001092C6020D
:100130001092C5021092C4021092C3021092C8021B
:100140001092C70210928202109281020895482FE5
:100150002091C7023091C8022F5F3F4FC90160E470
:1001600070E00E94D8039C018091810290918202EC
:100170002817390759F03093C8022093C702275334
:100180003D4FF901408381E090E0089580E090E0E8
:100190000895482F2091C5023091C6022F5F3F4F2E
:1001A000C90160E470E00E94D8039C018091C30201
:1001B0009091C4022817390759F03093C602209352
:1001C000C5022D573D4FF901408381E090E008952D
:1001D00080E090E0089580918102909182022091C8
:1001E000C7023091C8022817390779F0019660E4F8
:1001F00070E00E94D803909382028093810287531B
:100200009D4FFC01808190E0089580E090E008958A
:100210008091C3029091C4022091C5023091C60220
:100220002817390779F0019660E470E00E94D8033E
:100230009093C4028093C3028D579D4FFC0180812F
:1002400090E0089580E090E008958FEF80930B0197
:1002500080930A01089510920B0110927C02089578
:100260008FEF80930B0180937C02089521E030E0B2
:1002700002C0220F331F8A95E2F7209580917C02FD
:10028000282320937C0220930B01089521E030E085
:1002900002C0220F331F8A95E2F780917C02822BE5
:1002A00080937C0280930B010895809580937C025B
:1002B00080930B010895CF93DF93FC0162E070E01F
:1002C0000E94D803EB0122E030E008C0CF01B90161
:1002D0000E94D803009741F02F5F3F4FC217D3070A
:1002E000ACF781E090E002C080E090E0DF91CF9138
:1002F0000895CF92DF92EF92FF920F931F93CF93C7
:10030000DF93009721F00E942E057C0104C098EE37
:10031000E92E93E0F92EC2E0D0E000E010E084E3A3
:10032000C82E82E0D82E16C0CE010E945B01009735
:1003300081F00F5F1F4F00D00F92EDB7FEB7D28252
:10034000C182D483C3830E94BD050F900F900F908C
:100350000F902196EC16FD063CF700D00F928AE430
:1003600092E0EDB7FEB792838183148303830E94EA
:10037000BD050F900F900F900F90DF91CF911F91BF
:100380000F91FF90EF90DF90CF900895F8940E9426
:10039000EB0078948823D1F3843011F090E0089535
:1003A0008FEF9FEF0895CF93C82F8A3019F48DE017
:1003B0000E94D301F89480910903882359F4C093D3
:1003C000C60081E0809309030AC0789486EF8A957D
:1003D000F1F7F8948C2F0E94C9000097B1F378943C
:1003E00081E090E0CF91089582E692E0909311032E
:1003F0008093100384E592E090930F0380930E03A3
:100400000E949600109209031092C50087E0809325
:10041000C400E0ECF0E0808182608083E1ECF0E0F9
:100420008081886080838081806480838081806116
:1004300080838081806880830895CF93C82F8A301D
:1004400019F48DE00E941D0280910903882331F484
:10045000C093C60081E08093090303C08C2F0E94E3
:10046000C900CF9108951F920F920FB60F920BB64D
:100470000F9211242F933F934F935F936F937F932A
:100480008F939F93AF93BF93EF93FF930E940801C5
:10049000882319F41092090302C08093C600FF91CB
:1004A000EF91BF91AF919F918F917F916F915F91EC
:1004B0004F913F912F910F900BBE0F900FBE0F9059
:1004C0001F9018951F920F920FB60F920BB60F92B6
:1004D00011242F933F934F935F936F937F938F9349
:1004E0009F93AF93BF93CF93EF93FF93C091C600B9
:1004F000C43019F08C2F0E941D028C2F0E94A7007F
:10050000FF91EF91CF91BF91AF919F918F917F918B
:100510006F915F914F913F912F910F900BBE0F9074
:100520000FBE0F901F90189584E090E00E94FF038B
:1005300008950E9495040895FC0180917D02909198
:100540007E02009739F4F0937E02E0937D021382DD
:100550001282089593838283F0937E02E0937D025A
:100560000895E0917D02F0917E02309731F49093EE
:100570007E0280937D0208C0F9012281338121151A
:100580003105D1F793838283FC011382128208958F
:10059000CF93DF93FC0120917D0230917E022115E3
:1005A000310531F040815181D901C0E0D0E00FC068
:1005B00090937E0280937D02138212821DC0129658
:1005C0008D919C911397ED01009739F0DC018D918D
:1005D0009C9111978417950794F3209739F43383EE
:1005E0002283F0937E02E0937D0206C08A819B8184
:1005F00093838283FB83EA83DF91CF9108950F93E6
:100600001F93CF93DF938AE090E00E94CF05C091C3
:100610007D02D0917E0200E712E013C000D00F925D
:10062000EDB7FEB712830183888199819483838318
:100630000E94BD050A80DB81C02D0F900F900F90A6
:100640000F90209759F78AE090E00E94CF05DF9144
:10065000CF911F910F91089509C0FC012281338130
:1006600030937E0220937D020E94950480917D024A
:1006700090917E02009789F708951F93CF93DF939F
:10068000CDB7DEB728970FB6F894DEBF0FBECDBF4B
:10069000009719F0FC01108101C011E68EE390E093
:1006A0000E94CF0540910E0350910F03CE01019699
:1006B00068E070E00E9489050097A1F00E94940212
:1006C0002981FC0120831182183619F0143739F47E
:1006D00003C00E949C02E2CF0E94B102DFCF0E94C1
:1006E000C802DCCF0E94FF020E942C0328960FB69E
:1006F000F894DEBF0FBECDBFDF91CF911F9108955B
:10070000CF93DF93CDB7DEB7C058D0400FB6F89483
:10071000DEBF0FBECDBF0E94F401789480E0C82EEA
:1007200082E0D82E0F920F92EDB7FEB7D282C1822F
:100730000E94BD050F900F9040910E0350910F0342
:10074000CE01019660E870E00E948905009759F19A
:10075000CE01019663E072E00E944C058C01009787
:1007600009F380E090E063E072E00E944C057C01B8
:10077000C80168E072E00E945105009721F4C701AA
:100780000E947901CFCFC8016EE072E00E9451054E
:10079000009721F4C7010E943D03C4CF83E192E09A
:1007A0000E94D605BFCF8FE192E00E94D605FFCF11
:1007B00097FB092E07260AD077FD04D00CD006D06F
:1007C00000201AF4709561957F4F0895F6F7909583
:1007D00081959F4F0895AA1BBB1B51E107C0AA1F1B
:1007E000BB1FA617B70710F0A61BB70B881F991FD2
:1007F0005A95A9F780959095BC01CD010895CF93A6
:10080000DF93AC018230910510F442E050E0E091BA
:100810000C03F0910D0320E030E0A0E0B0E024C034
:100820008081918184179507D0F08417950771F422
:1008300082819381109729F013969C938E9312973F
:100840002CC090930D0380930C0327C02115310514
:1008500019F08217930718F49C01BD01EF019281F2
:100860008381DF01E92FF82F3097D1F6211531056B
:10087000F9F0C901841B950B8430910580F48A81BD
:100880009B816115710521F0FB019383828304C074
:1008900090930D0380930C03FE01329642C0FE013B
:1008A000E80FF91F4193519302979983888339C0C8
:1008B00080910A0390910B03009741F48091780294
:1008C0009091790290930B0380930A032091760212
:1008D000309177022115310541F42DB73EB7809153
:1008E0007A0290917B02281B390BE0910A03F09168
:1008F0000B03E217F30798F42E1B3F0B2417350761
:1009000070F0CA0102962817390748F08E0F9F1F12
:1009100090930B0380930A034193519302C0E0E04C
:10092000F0E0CF01DF91CF9108950F931F93CF9304
:10093000DF939C01009709F48CC0DC011297139699
:100940001C921E92129760910C0370910D03611519
:10095000710589F48D919C911197820F931F2091BD
:100960000A0330910B032817390769F5B0930B037D
:10097000A0930A036EC0FB0140E050E001C0FC01FF
:10098000EA17FB0730F482819381AF010097B9F732
:100990001FC0E9012297FB83EA8308811981C901FD
:1009A000800F911F8E179F0759F480819181800FCE
:1009B000911F029699838883828193819B838A8386
:1009C0004115510529F4B0930D03A0930C0341C0C8
:1009D000FA01B383A283C191D191EC0FFD1FAE1731
:1009E000BF0781F4F901929182918C0F9D1F0296AD
:1009F000DA0111969C938E938281938113969C9336
:100A00008E931297E0E0F0E002C0FB01BC01DB0135
:100A100012968D919C9113970097B9F7CB0102968E
:100A20002D913C911197820F931F20910A033091D1
:100A30000B032817390769F4309729F410920D0336
:100A400010920C0302C01382128270930B03609306
:100A50000A03DF91CF911F910F910895FC01882720
:100A60009927E89421912032E9F3293010F02E30B3
:100A7000C8F32B3241F02D3239F4689404C00E943F
:100A80008105820F911D219120532A30C0F31EF45D
:100A9000909581959F4F08954FE752E00E945A0527
:100AA0000895FB01DC018D91019080190110D9F3AB
:100AB000990B0895FA01A191B081009719F410974C
:100AC000E1F0CD01DC01CD010D90002011F4C00159
:100AD00013C0FB012191222319F02015D9F7F3CF80
:100AE000FB012191201519F41E92119606C02223B4
:100AF000C1F70D900020A1F7D001FA01A193B083B6
:100B000008957AE0979F902D879F802D910D112455
:100B10000895CF92DF92EF92FF920F931F93CF939E
:100B2000DF938C016A01FA01838180FF1AC01616D7
:100B30001706BCF47B01E8010EC0C6010E94210823
:100B4000FFEF8F3F9F0769F089930894E108F10850
:100B50008A30910521F021E0E216F10471F7188244
:100B600002C000E010E0C801DF91CF911F910F910A
:100B7000FF90EF90DF90CF900895CF93DF93CDB7A4
:100B8000DEB7FE01369661917191809110039091CC
:100B90001103AF010E940406DF91CF910895609187
:100BA0001003709111030E94610808950F931F9321
:100BB000CF93DF938C01E0911003F09111038381B7
:100BC00081FF1AC0C0E0D0E005C01995009711F070
:100BD000CFEFDFEFF80181918F01609110037091E9
:100BE0001103DB011896ED91FC911997882369F7A1
:100BF0008AE01995009711F0CFEFDFEFCE01DF917A
:100C0000CF911F910F9108952F923F924F925F9233
:100C10006F927F928F929F92AF92BF92CF92DF920C
:100C2000EF92FF920F931F93CF93DF93CDB7DEB771
:100C30002D970FB6F894DEBF0FBECDBF3C017D8768
:100C40006C875A01FC0117821682838181FFC8C11B
:100C50002E010894411C511CF3019381EC85FD8504
:100C600093FD859193FF8191FD87EC87882309F49B
:100C7000B3C1853241F493FD859193FF8191FD8746
:100C8000EC87853229F490E0B3010E946108E4CF3B
:100C9000FF24EE2410E01032B0F48B3269F08C3275
:100CA00028F4803251F0833271F40BC08D3239F068
:100CB000803349F411602CC01260146029C01860A0
:100CC00027C0106125C017FD2EC0282F20532A30C1
:100CD00098F416FF08C08F2D880FF82EFF0CFF0C1C
:100CE000F80EF20E15C08E2D880FE82EEE0CEE0CCD
:100CF000E80EE20E10620CC08E3221F416FD6CC1BB
:100D0000106406C08C3611F4106802C0883659F49D
:100D1000EC85FD8593FD859193FF8191FD87EC879F
:100D2000882309F0B8CF982F9554933018F090523B
:100D3000933038F424E030E0A20EB31E3FE3398351
:100D40000FC0833631F0833781F0833509F05AC004
:100D500022C0F5018081898322E030E0A20EB31E1B
:100D600021E0C22ED12C420114C092E0292E312C58
:100D70002A0C3B1CF5018080918016FF03C06F2D6B
:100D800070E002C06FEF7FEFC4010E9416086C0193
:100D900051011F7715C082E0282E312C2A0C3B1CF4
:100DA000F5018080918016FF03C06F2D70E002C0B6
:100DB0006FEF7FEFC4010E940B086C0110685101B6
:100DC00013FD1CC006C080E290E0B3010E946108E0
:100DD000EA948E2D90E0C816D906A8F30FC0F4014E
:100DE00017FD859117FF81914F0190E0B3010E949B
:100DF0006108E110EA940894C108D108C114D10433
:100E000071F7E7C0843611F0893651F5F50117FF07
:100E100007C080819181A281B38124E030E008C0C5
:100E200080819181AA2797FDA095BA2F22E030E01A
:100E3000A20EB31E012F0F76B7FF08C0B095A09584
:100E4000909581959F4FAF4FBF4F0068BC01CD017A
:100E5000A2012AE030E00E948D08D82ED4183FC0AD
:100E6000853721F41F7E2AE030E020C0197F8F36BD
:100E7000A9F0803720F4883509F0AEC00BC0803768
:100E800021F0883709F0A8C001C0106114FF09C023
:100E9000146007C014FF08C0166006C028E030E0E8
:100EA00005C020E130E002C020E132E0F50117FF8B
:100EB00007C0608171818281938144E050E006C067
:100EC0006081718180E090E042E050E0A40EB51EA8
:100ED000A2010E948D08D82ED418012F0F7706FF8B
:100EE00009C00E7FDF1430F404FF06C002FD04C009
:100EF0000F7E02C01D2D01C01F2D802F90E004FF2A
:100F00000CC0FE01ED0DF11D2081203311F4097E8E
:100F100009C002FF06C01E5F05C08678907000976A
:100F200009F01F5F802E992403FD12C000FF0DC041
:100F3000FD2C1E1550F4FE0CF11A1E2D06C080E289
:100F400090E0B3010E9461081F5F1E15C0F304C04A
:100F50001E1510F4E11A01C0EE2484FE0FC080E3D8
:100F600090E0B3010E94610882FE1FC081FE03C0B1
:100F700088E590E010C088E790E00DC0C401867855
:100F80009070009791F081FC02C080E201C08BE27A
:100F900007FD8DE290E0B3010E94610806C080E386
:100FA00090E0B3010E946108FA94DF14C0F3DA9470
:100FB000F201ED0DF11D808190E0B3010E94610806
:100FC000DD20A9F706C080E290E0B3010E9461082D
:100FD000EA94EE20C1F740CEF3018681978102C0EA
:100FE0008FEF9FEF2D960FB6F894DEBF0FBECDBFEB
:100FF000DF91CF911F910F91FF90EF90DF90CF90F5
:10100000BF90AF909F908F907F906F905F904F9028
:101010003F902F900895FC010590615070400110A1
:10102000D8F7809590958E0F9F1F0895FC01615011
:10103000704001900110D8F7809590958E0F9F1FFA
:101040000895CF93DF93EC012B8120FF35C026FF5D
:1010500009C02F7B2B838E819F8101969F838E8376
:101060008A8128C022FF0FC0E881F98180819927F9
:1010700087FD9095009719F420622B831DC031964F
:10108000F983E88311C0EA85FB85CE01199597FFA6
:101090000BC02B813FEF8F3F930711F480E101C01C
:1010A00080E2822B8B8308C02E813F812F5F3F4FD0
:1010B0003F832E8390E002C08FEF9FEFDF91CF91AF
:1010C00008950F931F93CF93DF938C01EB018B81D6
:1010D00081FF1BC082FF0DC02E813F818C819D81CD
:1010E0002817390764F4E881F9810193F983E883CB
:1010F00006C0E885F985802F1995009731F48E8117
:101100009F8101969F838E8302C00FEF1FEFC8015E
:10111000DF91CF911F910F910895FA01AA272830EE
:1011200051F1203181F1E8946F936E7F6E5F7F4FB4
:101130008F4F9F4FAF4FB1E03ED0B4E03CD0670F30
:10114000781F891F9A1FA11D680F791F8A1F911D83
:10115000A11D6A0F711D811D911DA11D20D009F4D3
:1011600068943F912AE0269F11243019305D319315
:10117000DEF6CF010895462F4770405D4193B3E0FE
:101180000FD0C9F7F6CF462F4F70405D4A3318F0A5
:10119000495D31FD4052419302D0A9F7EACFB4E056
:1011A000A6959795879577956795BA95C9F700970E
:1011B0006105710508959B01AC010A2E06945795AF
:1011C000479537952795BA95C9F7620F731F841F06
:0A11D000951FA01D0895F894FFCFAD
:1011DA002420000A0D0920007072696D65006C698F
:1011EA007374006E6F7420636F6D6D616E64006C52
:1011FA006F676F75742C20676F6F64206279652042
:10120A002121210025642069732061207072696D93
:10121A0065206E756D6265720A00636F756E743D46
:10122A0025640A0000000001000000000000C60159
:10123A0000000000000200000000D30100000000CE
:0C124A002D2D3E25630000001403200041
:00000001FF
