:100000000C9472000C9494000C9494000C94940042
:100010000C9494000C9494000C9494000C94940010
:100020000C9494000C9494000C9494000C94940000
:100030000C9494000C9494000C9494000C94CC04B4
:100040000C9494000C9494000C9494000C949400E0
:100050000C9494000C9494000C9494000C949400D0
:100060000C9494000C949D050C9494000C945805E9
:100070000C9494000C94E5060C9494000C94940059
:100080000C9494000C9494000C9494000C949400A0
:100090000C9494000C9494000C9494000C94940090
:1000A0000C9494000C9494000C9494000C94940080
:1000B0000C9494000C9494000C9494000C94940070
:1000C0000C9494000C9494000C9494000C94940060
:1000D0000C9494000C9494000C9494000C94940050
:1000E0000C94940011241FBECFEFD1E2DEBFCDBF30
:1000F00000E00CBF13E0A0E0B2E0E0ECF5E200E0CD
:100100000BBF02C007900D92A83EB107D9F71BBEE6
:1001100018E0A8EEB3E001C01D92A93AB107E1F7DB
:100120000E940A0D0C94DE120C94000084E090E012
:100130000E94960D08950E942C0E0895FC01809156
:10014000E8039091E903009739F4F093E903E09311
:10015000E80313821282089593838283F093E90364
:10016000E093E8030895E091E803F091E903309704
:1001700031F49093E9038093E80308C0F9012281E8
:10018000338121153105D1F793838283FC011382DA
:1001900012820895CF93DF93FC012091E803309100
:1001A000E9032115310531F040815181D901C0E0C9
:1001B000D0E00FC09093E9038093E803138212828A
:1001C0001DC012968D919C911397ED01009739F007
:1001D000DC018D919C9111978417950794F32097DA
:1001E00039F433832283F093E903E093E80306C0F4
:1001F0008A819B8193838283FB83EA83DF91CF9102
:1002000008950F931F93CF93DF938AE090E00E94AD
:10021000930FC091E803D091E90300E012E013C00E
:1002200000D00F92EDB7FEB71283018388819981C8
:10023000948383830E94810F0A80DB81C02D0F90FD
:100240000F900F900F90209759F78AE090E00E944E
:10025000930FDF91CF911F910F91089509C0FC0179
:10026000228133813093E9032093E8030E942C0E0E
:100270008091E8039091E903009789F70895EF9240
:10028000FF921F93CF93DF93CDB7DEB728970FB6BA
:10029000F894DEBF0FBECDBF009719F0FC011081AE
:1002A00001C011E687E0E82E82E0F82E0F920F924F
:1002B000EDB7FEB7F282E1820E94810F0F900F909E
:1002C0004091A3085091A408CE01019668E070E027
:1002D0000E94270F0097A1F00E9496002981FC013F
:1002E00020831182183619F0143739F403C00E94A4
:1002F0009E00DCCF0E94B300D9CF0E94CA00D6CFA7
:100300000E9401010E942E0128960FB6F894DEBFCC
:100310000FBECDBFDF91CF911F91FF90EF90089559
:10032000CF92DF92EF92FF920F931F93CF93DF93C1
:10033000009741F0FC012081222321F00E94C50E8C
:100340008C0102C000ED17E0C2E0D0E0EE24FF24F3
:100350008DE0C82E82E0D82E17C0CE010E9407067D
:10036000009789F00894E11CF11C00D00F92EDB7C2
:10037000FEB7D282C182D483C3830E94810F0F90C3
:100380000F900F900F9021960C171D0734F700D097
:100390000F9287E292E0EDB7FEB792838183F482F9
:1003A000E3820E94810F0F900F900F900F90DF91CA
:1003B000CF911F910F91FF90EF90DF90CF90089514
:1003C0001092F3031092F203109215081092140881
:1003D0000895CF93DF93482FE92F8091F2039091F6
:1003E000F303C0911408D0911508019620E130E084
:1003F000B9010E94380D8C179D0731F18091F203ED
:100400009091F3030196B9010E94380D9093F30384
:100410008093F2038091F2039091F303DC01AA0F21
:10042000BB1F66E0880F991F6A95E1F7A80FB91FF7
:10043000AC50BC4FC42FDE2F82E409900D92815046
:10044000E1F781E090E002C080E090E0DF91CF91A1
:1004500008959C014091F2035091F3038091140898
:10046000909115084817590731F18091140890911F
:100470001508019660E170E00E94380D9093150810
:10048000809314088091140890911508FC01EE0FD8
:10049000FF1FA6E0880F991FAA95E1F7E80FF91F43
:1004A000D901EC50FC4F82E401900D928150E1F7AC
:1004B00081E090E0089580E090E00895FC012081C3
:1004C000222319F50E94D50681E090E09093EB037A
:1004D0008093EA038091EA039091EB030097D1F7B0
:1004E00000D00F9281E392E0EDB7FEB79283818353
:1004F0008091EC039091ED03948383830E94810F9C
:100500000F900F900F900F9008950E94C50E9C01C0
:10051000B901882777FD8095982F0E94AF0A29E0BE
:1005200030EF4CE85AE30E94030920E030E04AE74C
:1005300054E40E9403090E94260B882777FD8095CA
:10054000982F0E94AF0A20E030E04AEF53E40E9467
:10055000CB0820E030E040E251E40E94040A0E940F
:10056000260BDC01CB019093ED038093EC031092FA
:10057000EB031092EA030895AF92BF92CF92DF92FD
:10058000EF92FF920F931F93CF93DF93CDB7DEB718
:10059000C258D0400FB6F894DEBF0FBECDBF0E9448
:1005A000CD06009709F492C0CE0101960E945B0F20
:1005B000009729F484E592E00E949A0FFFCFCE01C4
:1005C000019669E672E00E94E30E8C0180E090E003
:1005D00069E672E00E94E30E7C0180E090E069E64B
:1005E00072E00E94E30E5C0180E090E069E672E058
:1005F0000E94E30E6C0101151105D1F0C80161E7FD
:1006000072E00E94E80E009721F4C7010E94900159
:1006100059C0C80167E772E00E94E80E009709F030
:1006200041C0E114F10489F48DE792E00E949A0F31
:100630000F920F928EE692E0EDB7FEB79283818320
:100640000E94810F0F900F9041C0C7010E94C50EFC
:100650008C01C50161E772E00E94E80E0097F9F491
:10066000CE018F5B9F4F20E931E0FC012193319354
:10067000CF01C114D10411F0B60102C065E872E0E7
:100680000E94F10EF894C80160E071E00E94380DFC
:10069000CE018F5B9F4F0E947D03789413C086E844
:1006A00092E00EC0C8016EE872E00E94E80E00976A
:1006B00029F485E892E00E945E0204C085E992E098
:1006C0000E949A0F84E290E00E94930FCE57DF4F72
:1006D0000FB6F894DEBF0FBECDBFDF91CF911F9153
:1006E0000F91FF90EF90DF90CF90BF90AF90089563
:1006F00086E490E00E94960D0895EF92FF920F938A
:100700001F93CF93DF93182F092F7B010E9478034B
:10071000EC01DC011296E12FF02F82E401900D92A2
:100720008150E1F7F982E882A091EE03B091EF03E6
:10073000109749F4D093EF03C093EE03CC5BDF4FE7
:100740001982188255C020E030E040E050E001C03E
:10075000DF018D919C911197480F591FFD014E1596
:100760005F0544F4EC5BFF4F0190F081E02D9D01AB
:10077000309771F78E010C5B1F4F2115310579F40D
:10078000808191818E199F0991838083D801119670
:10079000FC93EE93D093EF03C093EE0329C0B9010D
:1007A0006C5B7F4F309761F4E41AF50AF982E882B6
:1007B000FB01D183C083D80111961C921E9218C0F0
:1007C000808191819A01281B390BC9019701281B4F
:1007D000390B3983288380819181821B930B91830C
:1007E0008083DB01CD93DC93D8011196FC93EE93CB
:1007F000DF91CF911F910F91FF90EF900895EF92AD
:10080000FF920F931F93CF93DF938AE090E00E94B3
:10081000930FC091EE03D091EF0300E010E088EA5F
:10082000E82E82E0F82E22C088819981080F191FD6
:1008300000D000D0EDB7FEB73196ADB7BEB7129677
:10084000FC92EE92119793838283158304830E9416
:10085000810FCC5BDF4F0990D881C02D8DB79EB73B
:1008600006960FB6F8949EBF0FBE8DBF2097E1F697
:100870008AE090E00E94930FDF91CF911F910F913A
:10088000FF90EF9008950BC0FC01EC5BFF4F2081BF
:1008900031813093EF032093EE030E942C0E809160
:1008A000EE039091EF03009779F708950F931F934C
:1008B000CF93DF93CDB7DEB7CA54D0400FB6F894CC
:1008C000DEBF0FBECDBF03EB12E00F920F92EDB76C
:1008D000FEB7128301830E94810F0F900F90409109
:1008E000A3085091A408CE01019668E070E00E9430
:1008F000270F009761F0CE0101960E94C50EBC0142
:10090000009729F0CE0109960E947D03DECF0E9458
:10091000FF030E944304C65BDF4F0FB6F894DEBFAF
:100920000FBECDBFDF91CF911F910F91089510920F
:10093000B200E6EBF0E0808180628083E0E7F0E0E7
:10094000808181608083E1EBF0E080818160808341
:100950008081826080830895CF93DF9310C0FE0171
:10096000EC5BFF4F808191819093EF038093EE03C6
:10097000CE0102960E94E901CE010E942C0EC09188
:10098000EE03D091EF03209721F0888199810097A1
:1009900031F3DF91CF9108951F920F920FB60F920E
:1009A0000BB60F9211242F933F934F935F936F9346
:1009B0007F938F939F93AF93BF93EF93FF93E091B8
:1009C000EE03F091EF03309749F080819181019718
:1009D00091838083009711F40E94AC04FF91EF9102
:1009E000BF91AF919F918F917F916F915F914F9147
:1009F0003F912F910F900BBE0F900FBE0F901F9045
:100A00001895F8940E947A0678948823D1F384305C
:100A100011F090E008958FEF9FEF0895CF93C82FC6
:100A20008A3019F48DE00E940E05F8948091160822
:100A3000882359F4C093C60081E0809316080AC049
:100A4000789486EF8A95F1F7F8948C2F0E945806D7
:100A50000097B1F3789481E090E0CF91089588EB0E
:100A600092E09093A4088093A30886EC92E0909380
:100A7000A6088093A5080E942506109216081092D9
:100A8000C50087E08093C400E0ECF0E080818260E4
:100A90008083E1ECF0E080818860808380818064E5
:100AA00080838081806180838081806880830895D5
:100AB0001F920F920FB60F920BB60F9211242F9325
:100AC0003F934F935F936F937F938F939F93AF93D6
:100AD000BF93EF93FF930E949706882319F4109217
:100AE000160802C08093C600FF91EF91BF91AF91AD
:100AF0009F918F917F916F915F914F913F912F9136
:100B00000F900BBE0F900FBE0F901F901895CF93B4
:100B1000C82F8A3019F48DE00E948705809116084D
:100B2000882331F4C093C60081E08093160803C087
:100B30008C2F0E945806CF9108951F920F920FB6E6
:100B40000F920BB60F9211241F932F933F934F9345
:100B50005F936F937F938F939F93AF93BF93EF9325
:100B6000FF93CF93DF93CDB7DEB7C254D040DEBF43
:100B7000CDBF1091C6001B3161F48091D4029091D9
:100B8000D5020196817090709093D5028093D40223
:100B900024C0143069F01D3009F41AE02091D40209
:100BA0003091D5022115310519F0812F0E9487055A
:100BB000812F0E943606143011F01A3071F48CEB3C
:100BC00092E09A838983CE01039667EB72E00E94DC
:100BD000F10ECE0101960E94E901CE5BDF4FDEBF30
:100BE000CDBFDF91CF91FF91EF91BF91AF919F91D9
:100BF0008F917F916F915F914F913F912F911F91B5
:100C00000F900BBE0F900FBE0F901F901895CF93B3
:100C1000DF93FC0162E070E00E94380DEB0122E0FE
:100C200030E008C0CF01B9010E94380D009741F0B3
:100C30002F5F3F4FC217D307ACF781E090E002C0AF
:100C400080E090E0DF91CF91089510925C081092BF
:100C50005B0810925A081092590810925E08109280
:100C60005D0810921808109217080895482F2091D7
:100C70005D0830915E082F5F3F4FC90160E470E06E
:100C80000E94380D9C018091170890911808281730
:100C9000390759F030935E0820935D08215A374F89
:100CA000F901408381E090E0089580E090E00895AC
:100CB000482F20915B0830915C082F5F3F4FC9019E
:100CC00060E470E00E94380D9C0180915908909179
:100CD0005A082817390759F030935C0820935B08AD
:100CE000275E374FF901408381E090E0089580E06E
:100CF00090E00895809117089091180820915D0860
:100D000030915E082817390779F0019660E470E0A9
:100D10000E94380D9093180880931708815A974FB6
:100D2000FC01808190E0089580E090E0089580913A
:100D3000590890915A0820915B0830915C08281757
:100D4000390779F0019660E470E00E94380D9093C5
:100D50005A0880935908875E974FFC01808190E084
:100D6000089580E090E00895809117089091180808
:100D700020915D0830915E088217930759F0019623
:100D800060E470E00E94380D815A974FFC01808129
:100D900090E0089580E090E008950E94B4060895E0
:100DA000809880E880937C000895EAE7F0E08081F5
:100DB000806880838DED90E00197F1F780818860F5
:100DC000808380818064808308951F920F920FB684
:100DD0000F920BB60F9211240F931F932F933F93F3
:100DE0004F935F936F937F938F939F93AF93BF9333
:100DF000EF93FF93CF93DF93CDB7DEB72897DEBF96
:100E0000CDBF8091780090917900EAE7F0E02081F1
:100E10002F77208300D000D0EDB7FEB731968E013A
:100E20000F5F1F4FADB7BEB712961C930E9311976D
:100E300026ED32E0338322839370958384830E946E
:100E4000C80F8DB79EB706960FB6F8949EBF0FBE1B
:100E50008DBFC8010E945E022896DEBFCDBFDF9124
:100E6000CF91FF91EF91BF91AF919F918F917F9122
:100E70006F915F914F913F912F911F910F910F9023
:100E80000BBE0F900FBE0F901F901895A0E0B0E022
:100E9000ECE4F7E00C94610DEC014B01FA01888160
:100EA000823008F43EC1DB019C91923008F436C1D7
:100EB000843059F4943009F034C1998111968C91A1
:100EC0001197981709F027C12CC1943009F426C155
:100ED0009230A9F4823009F024C1CE0128E0DC016F
:100EE0000D90CD01DA010D92AD012150C1F7D40171
:100EF00011968C91119799818923818311C1823038
:100F000009F40CC1AA80BB80DB0112964D915C9163
:100F10001397CC80DD80EE80FF8014960D911D919B
:100F20002D913C911797C501841B950BDC0197FF10
:100F300004C0AA27BB27A81BB90BA032B1050CF02F
:100F400067C01816190684F5280139010A2E04C055
:100F500076946794579447940A94D2F741E050E00E
:100F600060E070E004C0440F551F661F771FAA950C
:100F7000D2F74150504060407040402351236223DB
:100F8000732381E090E0A0E0B0E0411551056105D8
:100F9000710519F480E090E0DC018C019D010429C9
:100FA0001529262937293FC00097E9F1AA0EBB1E53
:100FB000260137010A2E04C076946794579447940B
:100FC0000A94D2F741E050E060E070E004C0440FC2
:100FD000551F661F771FAA95D2F7415050406040B9
:100FE00070404C215D216E217F2181E090E0A0E0E6
:100FF000B0E0411551056105710519F480E090E0FC
:10100000DC016C017D01C428D528E628F7280BC037
:101010004A155B0524F400E010E0980104C05A0171
:10102000CC24DD2476018981D40111969C911197FD
:10103000891709F445C0882329F00C191D092E09C8
:101040003F0908C0D701C601801B910BA20BB30B4F
:101050008C019D0137FD04C01182B382A2820BC0B6
:1010600081E08183B382A28230952095109501950D
:101070001F4F2F4F3F4F04831583268337830DC0A7
:10108000880F991FAA1FBB1F84839583A683B783EC
:101090008281938101979383828384819581A68144
:1010A000B781AC01BD0141505040604070404F3F9E
:1010B0002FEF52072FEF62072FE3720708F30BC0E1
:1010C0008183B382A2820C0D1D1D2E1D3F1D048342
:1010D00015832683378383E080834481558166812D
:1010E000778177FF1DC0DB01CA0181709070A0700D
:1010F000B0707695679557954795842B952BA62BC1
:10110000B72B84839583A683B783828193810196CD
:101110009383828305C0C9EDD2E003C0E40101C01E
:10112000EF01CE01CDB7DEB7E0E10C947D0DA0E27A
:10113000B0E0EDE9F8E00C946F0DDC01CB018D839C
:101140009E83AF83B88729833A834B835C83CE0128
:101150000596BE01675E7F4F0E94A10CCE010196ED
:10116000BE016F5E7F4F0E94A10CCE014996BE0169
:101170006F5E7F4FAE01475F5F4F0E9446070E9440
:10118000CA0B462F572F682F792FCB01BA01A09693
:10119000E2E00C948B0DA0E2B0E0E1EDF8E00C94FD
:1011A0006F0DDC01CB018D839E83AF83B8872983CC
:1011B0003A834B835C83CE010596BE01675E7F4F09
:1011C0000E94A10CCE010196BE016F5E7F4F0E946E
:1011D000A10C8A8991E089278A8BCE014996BE01AC
:1011E0006F5E7F4FAE01475F5F4F0E9446070E94D0
:1011F000CA0B462F572F682F792FCB01BA01A09623
:10120000E2E00C948B0DA0E2B0E0E9E0F9E00C9490
:10121000610DDC01CB018D839E83AF83B887298369
:101220003A834B835C83CE010596BE01675E7F4F98
:101230000E94A10CCE010196BE016F5E7F4F0E94FD
:10124000A10C998D923078F089898230C0F0943069
:1012500019F4823041F4CAC0843019F4923079F420
:10126000C5C0923051F481E02A8D9A89291709F47A
:1012700080E08A8FCE014996BBC0823051F481E074
:101280002A8D9A89291709F480E08A8BCE0141962C
:10129000AFC04D8C5E8C6F8C78A00D891E892F8914
:1012A000388DE0E2F0E040E050E0BA018824992473
:1012B0005401CC24DD247601C20181709070009726
:1012C000D1F0C00ED11EE21EF31EDB01CA01880D53
:1012D000991DAA1DBB1D41E050E060E070E0C01602
:1012E000D106E206F30618F040E050E0BA01480FDC
:1012F000591F6A1F7B1F880C991CAA1CBB1C37FF37
:1013000008C081E090E0A0E0B0E0882A992AAA2AEB
:10131000BB2A000F111F221F331F76946794579426
:101320004794319749F68B8D9C8D2B893C89820F90
:10133000931F02969C878B8781E02A8D9A892917B3
:1013400009F480E08A872B853C8517C0CA0181702B
:101350009070009761F0F694E794D794C79480E07A
:1013600090E0A0E0B0E8C82AD92AEA2AFB2A7695BC
:101370006795579547952F5F3F4F77FDE7CFC90199
:101380000BC0440F551F661F771FF7FC4160CC0C44
:10139000DD1CEE1CFF1C01974030A0E05A07A0E0C6
:1013A0006A07A0E47A0768F38B879C87DB01CA0190
:1013B0008F779070A070B07080349105A105B10551
:1013C00061F447FD0AC0C114D104E104F10429F01D
:1013D000405C5F4F6F4F7F4F40784D875E876F87D0
:1013E000788B83E08987CE01099602C089ED92E06F
:1013F0000E94CA0B462F572F682F792FCB01BA01B5
:10140000A096E0E10C947D0DA8E1B0E0EAE0FAE0FE
:101410000C94690DDC01CB018D839E83AF83B8876B
:1014200029833A834B835C83CE010596BE016F5EB0
:101430007F4F0E94A10CCE010196BE01675F7F4FD6
:101440000E94A10C9989923008F475C08985823078
:1014500008F474C02A893A8523272A8B943011F026
:10146000923021F4981709F066C06BC0843039F4CB
:101470001D8A1E8A1F8A188E1C8A1B8A5CC08230B5
:1014800019F484E0898B57C02B893C898B859C8516
:10149000281B390B3C8B2B8B8D899E89AF89B88D8E
:1014A000CD84DE84EF84F8888C159D05AE05BF05DC
:1014B00040F4880F991FAA1FBB1F215030403C8B5E
:1014C0002B8BEFE1F0E000E010E020E030E440E0C2
:1014D00050E0BA018C159D05AE05BF0540F0402BCC
:1014E000512B622B732B8C199D09AE09BF093695C0
:1014F000279517950795880F991FAA1FBB1F31972E
:1015000049F78A019B010F7710702070307000340A
:1015100011052105310559F447FD09C00097A105C2
:10152000B10529F0405C5F4F6F4F7F4F40784D8B86
:101530005E8B6F8B788FCE01419605C0CE010996E8
:1015400002C089ED92E00E94CA0B462F572F682FE8
:10155000792FCB01BA016896E8E00C94850DCF9203
:10156000DF92EF92FF92CF93DF93CDB7DEB728974C
:101570000FB6F894DEBF0FBECDBF6B017C0183E0D8
:101580008983D701C6018827B7FD83959927AA27A4
:10159000BB27282F8A83C114D104E104F10419F474
:1015A00082E0898335C08EE190E09C838B83222387
:1015B00089F080E0C81680E0D80680E0E80680E880
:1015C000F80659F1F094E094D094C094C11CD11C59
:1015D000E11CF11CCD82DE82EF82F886C701B601E4
:1015E0000E94770B01971816190694F4082E04C070
:1015F000CC0CDD1CEE1CFF1C0A94D2F7CD82DE82DF
:10160000EF82F8862EE130E0281B390B3C832B83D8
:10161000CE0101960E94CA0B04C060E070E080E039
:101620009FEC382F292F862F972FA32FB22FBC0185
:10163000CD0128960FB6F894DEBF0FBECDBFDF9167
:10164000CF91FF90EF90DF90CF900895ACE0B0E0A5
:10165000ECE2FBE00C946D0DDC01CB0189839A83F5
:10166000AB83BC83CE010196BE016B5F7F4F0E94AE
:10167000A10C8D81823069F1823058F1843039F0CB
:101680002F81388537FD25C02F31310544F08E81FB
:10169000882319F100E010E020E030E822C08EE15C
:1016A00090E0821B930B09851A852B853C8504C02D
:1016B00036952795179507958A95D2F78E818823B9
:1016C00081F030952095109501951F4F2F4F3F4F7A
:1016D00008C000E010E0980104C00FEF1FEF2FEFEB
:1016E0003FE7B801C9012C96E4E00C94890DCF9234
:1016F000DF92EF92FF920F931F938B019C010030BA
:1017000080E0180781E0280780E0380750F40F3F99
:1017100011052105310509F088F480E090E0DC0135
:1017200016C00030E0E01E07E0E02E07E1E03E07D3
:1017300050F480E190E0A0E0B0E009C088E090E0E3
:10174000A0E0B0E004C088E190E0A0E0B0E040E2BA
:1017500050E060E070E0481B590B6A0B7B0B68019E
:10176000790104C0F694E794D794C7948A95D2F788
:10177000D701C6018F519D4FFC018081481B510943
:1017800061097109CA011F910F91FF90EF90DF90DD
:10179000CF900895CF92DF92EF92FF920F931F9315
:1017A000DC0114964D915D916D917C911797119686
:1017B000EC9111978C91823020F460618FEF90E072
:1017C000A5C0843009F49DC0823009F494C041154D
:1017D00051056105710509F491C012968D919C9196
:1017E00013972FEF823892070CF059C022E83FEF91
:1017F000281B390B2A31310564F56A017B01022E61
:1018000004C0F694E794D794C7940A94D2F781E081
:1018100090E0A0E0B0E004C0880F991FAA1FBB1F92
:101820002A95D2F70197A109B10984239523A6230C
:10183000B72341E050E060E070E00097A105B105FA
:1018400019F440E050E0BA014C295D296E297F2946
:1018500003C040E050E0BA01DB01CA018F7790700D
:10186000A070B07080349105A105B10539F447FF2F
:1018700009C0405C5F4F6F4F7F4F04C0415C5F4FBA
:101880006F4F7F4F81E090E0403020E0520720E032
:10189000620720E4720738F580E090E024C08038C9
:1018A00091057CF58A019B010F77107020703070D4
:1018B000003411052105310539F447FF09C0405CAA
:1018C0005F4F6F4F7F4F04C0415C5F4F6F4F7F4F43
:1018D00077FD03C081589F4F06C076956795579551
:1018E000479580589F4F97E0769567955795479510
:1018F0009A95D1F70BC080E090E005C080E090E0C1
:1019000005C08FEF90E040E050E0BA01982F979526
:1019100099279795A62FAF77E795EE27E7958695B8
:101920003A2F392B282F2E2B842F952FA32FB22F10
:10193000BC01CD011F910F91FF90EF90DF90CF90F0
:101940000895DC01FB014C9111965C911197129660
:101950008C911297682F6F7770E0982F991F9927B5
:10196000991F13962C911397822F880F892B90E043
:10197000221F2227221F2183009739F54115510587
:101980006105710511F482E029C082E89FEF93831D
:10199000828327E0440F551F661F771F2A95D1F7D2
:1019A00083E0808309C0440F551F661F771F828123
:1019B0009381019793838283403080E0580780E0D1
:1019C000680780E4780778F320C08F3F910579F4A9
:1019D000411551056105710519F484E0808308956E
:1019E00064FF03C081E0808310C010820EC08F5757
:1019F00090409383828383E0808387E0440F551F68
:101A0000661F771F8A95D1F7706444835583668378
:101A100077830895CF93DF93CDB7DEB7C254D0401C
:101A20000FB6F894DEBF0FBECDBF0E942F050E94F7
:101A3000E0010E9497040E94D00678940F920F92C2
:101A40008AE092E0EDB7FEB7928381830E94810F16
:101A50000F900F90F894CE0101960E94290278947D
:101A60000097C1F3E981FA81CE0103961995F2CF6F
:101A700097FB092E07260AD077FD04D00CD006D09C
:101A800000201AF4709561957F4F0895F6F79095B0
:101A900081959F4F0895AA1BBB1B51E107C0AA1F48
:101AA000BB1FA617B70710F0A61BB70B881F991FFF
:101AB0005A95A9F780959095BC01CD0108952F9274
:101AC0003F924F925F926F927F928F929F92AF92CE
:101AD000BF92CF92DF92EF92FF920F931F93CF931B
:101AE000DF93CDB7DEB7CA1BDB0B0FB6F894DEBFB2
:101AF0000FBECDBF19942A88398848885F846E84C8
:101B00007D848C849B84AA84B984C884DF80EE8021
:101B1000FD800C811B81AA81B981CE0FD11D0FB62A
:101B2000F894DEBF0FBECDBFED010895CF93DF93D4
:101B3000AC018230910510F442E050E0E091A10840
:101B4000F091A20820E030E0A0E0B0E024C0808165
:101B5000918184179507D0F08417950771F48281DD
:101B60009381109729F013969C938E9312972CC013
:101B70009093A2088093A10827C02115310519F080
:101B80008217930718F49C01BD01EF0192818381B4
:101B9000DF01E92FF82F3097D1F621153105F9F043
:101BA000C901841B950B8430910580F48A819B8147
:101BB0006115710521F0FB019383828304C090932A
:101BC000A2088093A108FE01329642C0FE01E80FF0
:101BD000F91F4193519302979983888339C080916B
:101BE0009F089091A008009741F48091E3039091A1
:101BF000E4039093A00880939F082091E103309123
:101C0000E2032115310541F42DB73EB78091E5037C
:101C10009091E603281B390BE0919F08F091A008F2
:101C2000E217F30798F42E1B3F0B2417350770F0CB
:101C3000CA0102962817390748F08E0F9F1F90930C
:101C4000A00880939F084193519302C0E0E0F0E028
:101C5000CF01DF91CF9108950F931F93CF93DF931F
:101C60009C01009709F48CC0DC01129713961C921A
:101C70001E9212976091A1087091A20861157105DA
:101C800089F48D919C911197820F931F20919F0849
:101C90003091A0082817390769F5B093A008A093E0
:101CA0009F086EC0FB0140E050E001C0FC01EA1754
:101CB000FB0730F482819381AF010097B9F71FC011
:101CC000E9012297FB83EA8308811981C901800F0A
:101CD000911F8E179F0759F480819181800F911F6A
:101CE000029699838883828193819B838A8341159D
:101CF000510529F4B093A208A093A10841C0FA01AC
:101D0000B383A283C191D191EC0FFD1FAE17BF0722
:101D100081F4F901929182918C0F9D1F0296DA0154
:101D200011969C938E938281938113969C938E93AC
:101D30001297E0E0F0E002C0FB01BC01DB0112966B
:101D40008D919C9113970097B9F7CB0102962D9135
:101D50003C911197820F931F20919F083091A0080A
:101D60002817390769F4309729F41092A2081092C5
:101D7000A10802C0138212827093A00860939F088A
:101D8000DF91CF911F910F910895FC01882799272A
:101D9000E89421912032E9F3293010F02E30C8F375
:101DA0002B3241F02D3239F4689404C00E941F0F89
:101DB000820F911D219120532A30C0F31EF490957B
:101DC00081959F4F089540EF53E00E94F80E0895CB
:101DD000FB01DC018D91019080190110D9F3990B61
:101DE0000895FB01DC0101900D920020E1F70895B8
:101DF000FA01A191B081009719F41097E1F0CD019B
:101E0000DC01CD010D90002011F4C00113C0FB01D5
:101E10002191222319F02015D9F7F3CFFB0121914D
:101E2000201519F41E92119606C02223C1F70D90B9
:101E30000020A1F7D001FA01A193B08308957AE0C0
:101E4000979F902D879F802D910D11240895CF92FB
:101E5000DF92EF92FF920F931F93CF93DF938C014A
:101E60006A01FA01838180FF1AC016161706BCF4B6
:101E70007B01E8010EC0C6010E941412FFEF8F3FE4
:101E80009F0769F089930894E108F1088A30910569
:101E900021F021E0E216F10471F7188202C000E09F
:101EA00010E0C801DF91CF911F910F91FF90EF904B
:101EB000DF90CF9008950F931F93CF93DF938C0102
:101EC000E091A308F091A408838180FF12C0E8018B
:101ED0008091A3089091A4080E9414122FEF8F3FC5
:101EE000920739F089938A30910591F721971882EA
:101EF00002C000E010E0C801DF91CF911F910F9167
:101F00000895CF93DF93CDB7DEB7FE01369661918A
:101F100071918091A5089091A608AF010E94F70FDA
:101F2000DF91CF9108956091A5087091A6080E9455
:101F3000541208950F931F93CF93DF938C01E09178
:101F4000A508F091A608838181FF1AC0C0E0D0E007
:101F500005C01995009711F0CFEFDFEFF8018191DF
:101F60008F016091A5087091A608DB011896ED918C
:101F7000FC911997882369F78AE01995009711F069
:101F8000CFEFDFEFCE01DF91CF911F910F91089539
:101F90000F931F93CF93DF93CDB7DEB72E970FB676
:101FA000F894DEBF0FBECDBF0E891F8986E08C83FB
:101FB0001A8309838FEF9FE79E838D83AE01465E70
:101FC0005F4FCE010196688D798D0E94F70FEF81EA
:101FD000F885E00FF11F10822E960FB6F894DEBF41
:101FE0000FBECDBFDF91CF911F910F9108952F921A
:101FF0003F924F925F926F927F928F929F92AF9299
:10200000BF92CF92DF92EF92FF920F931F93CF93E5
:10201000DF93CDB7DEB72D970FB6F894DEBF0FBEB6
:10202000CDBF3C017D876C875A01FC011782168267
:10203000838181FFC8C12E010894411C511CF3010A
:102040009381EC85FD8593FD859193FF8191FD87BB
:10205000EC87882309F4B3C1853241F493FD85915F
:1020600093FF8191FD87EC87853229F490E0B301DD
:102070000E945412E4CFFF24EE2410E01032B0F49A
:102080008B3269F08C3228F4803251F0833271F453
:102090000BC08D3239F0803349F411602CC01260CE
:1020A000146029C0186027C0106125C017FD2EC01C
:1020B000282F20532A3098F416FF08C08F2D880F40
:1020C000F82EFF0CFF0CF80EF20E15C08E2D880FA7
:1020D000E82EEE0CEE0CE80EE20E10620CC08E3212
:1020E00021F416FD6CC1106406C08C3611F4106822
:1020F00002C0883659F4EC85FD8593FD859193FFE8
:102100008191FD87EC87882309F0B8CF982F9554EB
:10211000933018F09052933038F424E030E0A20E5F
:10212000B31E3FE339830FC0833631F0833781F02C
:10213000833509F05AC022C0F5018081898322E0ED
:1021400030E0A20EB31E21E0C22ED12C420114C0F9
:1021500092E0292E312C2A0C3B1CF50180809180C5
:1021600016FF03C06F2D70E002C06FEF7FEFC40158
:102170000E9409126C0151011F7715C082E0282EC0
:10218000312C2A0C3B1CF5018080918016FF03C086
:102190006F2D70E002C06FEF7FEFC4010E94FE114F
:1021A0006C011068510113FD1CC006C080E290E074
:1021B000B3010E945412EA948E2D90E0C816D906FD
:1021C000A8F30FC0F40117FD859117FF81914F010E
:1021D00090E0B3010E945412E110EA940894C108FF
:1021E000D108C114D10471F7E7C0843611F08936E3
:1021F00051F5F50117FF07C080819181A281B3815C
:1022000024E030E008C080819181AA2797FDA09545
:10221000BA2F22E030E0A20EB31E012F0F76B7FFD7
:1022200008C0B095A095909581959F4FAF4FBF4F37
:102230000068BC01CD01A2012AE030E00E948012BA
:10224000D82ED4183FC0853721F41F7E2AE030E015
:1022500020C0197F8F36A9F0803720F4883509F027
:10226000AEC00BC0803721F0883709F0A8C001C08C
:10227000106114FF09C0146007C014FF08C0166085
:1022800006C028E030E005C020E130E002C020E1D7
:1022900032E0F50117FF07C060817181828193816F
:1022A00044E050E006C06081718180E090E042E04F
:1022B00050E0A40EB51EA2010E948012D82ED418A0
:1022C000012F0F7706FF09C00E7FDF1430F404FFE3
:1022D00006C002FD04C00F7E02C01D2D01C01F2DCF
:1022E000802F90E004FF0CC0FE01ED0DF11D208158
:1022F000203311F4097E09C002FF06C01E5F05C02D
:1023000086789070009709F01F5F802E992403FD56
:1023100012C000FF0DC0FD2C1E1550F4FE0CF11A6A
:102320001E2D06C080E290E0B3010E9454121F5F90
:102330001E15C0F304C01E1510F4E11A01C0EE24EE
:1023400084FE0FC080E390E0B3010E94541282FE2D
:102350001FC081FE03C088E590E010C088E790E0D0
:102360000DC0C40186789070009791F081FC02C086
:1023700080E201C08BE207FD8DE290E0B3010E9494
:10238000541206C080E390E0B3010E945412FA9404
:10239000DF14C0F3DA94F201ED0DF11D808190E0BD
:1023A000B3010E945412DD20A9F706C080E290E03C
:1023B000B3010E945412EA94EE20C1F740CEF3011B
:1023C0008681978102C08FEF9FEF2D960FB6F8940C
:1023D000DEBF0FBECDBFDF91CF911F910F91FF9058
:1023E000EF90DF90CF90BF90AF909F908F907F90B5
:1023F0006F905F904F903F902F900895FC01059053
:10240000615070400110D8F7809590958E0F9F1FF6
:102410000895FC016150704001900110D8F780953B
:1024200090958E0F9F1F0895CF93DF93EC012B8122
:1024300020FF35C026FF09C02F7B2B838E819F8113
:1024400001969F838E838A8128C022FF0FC0E88176
:10245000F9818081992787FD9095009719F4206272
:102460002B831DC03196F983E88311C0EA85FB8573
:10247000CE01199597FF0BC02B813FEF8F3F93073C
:1024800011F480E101C080E2822B8B8308C02E8191
:102490003F812F5F3F4F3F832E8390E002C08FEF3D
:1024A0009FEFDF91CF9108950F931F93CF93DF9309
:1024B0008C01EB018B8181FF1BC082FF0DC02E813F
:1024C0003F818C819D812817390764F4E881F98167
:1024D0000193F983E88306C0E885F985802F199573
:1024E000009731F48E819F8101969F838E8302C075
:1024F0000FEF1FEFC801DF91CF911F910F9108954A
:10250000FA01AA27283051F1203181F1E8946F9324
:102510006E7F6E5F7F4F8F4F9F4FAF4FB1E03ED0CA
:10252000B4E03CD0670F781F891F9A1FA11D680F68
:10253000791F8A1F911DA11D6A0F711D811D911D9B
:10254000A11D20D009F468943F912AE0269F112410
:102550003019305D3193DEF6CF010895462F477074
:10256000405D4193B3E00FD0C9F7F6CF462F4F70CF
:10257000405D4A3318F0495D31FD4052419302D02D
:10258000A9F7EACFB4E0A6959795879577956795D3
:10259000BA95C9F700976105710508959B01AC01D3
:1025A0000A2E06945795479537952795BA95C9F7FA
:1025B000620F731F841F951FA01D0895F894FFCF0D
:1025C0002D2D3E256320003E200024200025642080
:1025D00069732061207072696D65206E756D62652A
:1025E00072202121210A00636F756E743D25640AF3
:1025F0000043757272656E742074656D70657261EA
:10260000747572652069732025642064656772653E
:10261000652E0A006C6F676F75742C20676F6F648E
:1026200020627965202121210020090A0D00242043
:10263000007072696D650074696D657200212121F9
:102640002D32323200002121212D333333007463C7
:102650003130343700556E6B6E6F776E20636F6D5F
:102660006D616E642E2E2E002D2D3E25642825646E
:102670002920003E3E200000000000010000000074
:1026800000000105000000000002000000000E052F
:1026900000000000010025640000000000000000B0
:1026A00000000102020303030304040404040404FD
:1026B00004050505050505050505050505050505CB
:1026C00005060606060606060606060606060606AB
:1026D000060606060606060606060606060606069A
:1026E000060707070707070707070707070707077B
:1026F000070707070707070707070707070707076A
:102700000707070707070707070707070707070759
:102710000707070707070707070707070707070749
:10272000070808080808080808080808080808082A
:102730000808080808080808080808080808080819
:102740000808080808080808080808080808080809
:1027500008080808080808080808080808080808F9
:1027600008080808080808080808080808080808E9
:1027700008080808080808080808080808080808D9
:1027800008080808080808080808080808080808C9
:1027900008080808080808080808080808080808B9
:0827A000080000A90820000058
:00000001FF
