:100000000C9472000C9494000C9494000C94940042
:100010000C9494000C9494000C9494000C94940010
:100020000C9494000C9494000C9494000C94940000
:100030000C9494000C9494000C9494000C949400F0
:100040000C9494000C9494000C9494000C949400E0
:100050000C9494000C9494000C9494000C949400D0
:100060000C9494000C9494000C9494000C949C01B7
:100070000C9494000C9494000C9494000C949400B0
:100080000C9494000C9494000C9494000C949400A0
:100090000C9494000C9494000C9494000C94940090
:1000A0000C9494000C9494000C9494000C94940080
:1000B0000C9494000C9494000C9494000C94940070
:1000C0000C9494000C9494000C9494000C94940060
:1000D0000C9494000C9494000C9494000C94940050
:1000E0000C94940011241FBECFEFD1E2DEBFCDBF30
:1000F00000E00CBF12E0A0E0B2E0EAE5F4E000E0CE
:100100000BBF02C007900D92A433B107D9F71BBEF5
:1001100012E0A4E3B2E001C01D92A737B107E1F7F6
:100120000E94DA010C942B020C9400008FEF809354
:100130000B0180930A01089510920B011092340272
:1001400008958FEF80930B0180933402089521E08E
:1001500030E002C0220F331F8A95E2F7209580918C
:10016000340228232093340220930B01089521E0C8
:1001700030E002C0220F331F8A95E2F780913402EB
:10018000822B8093340280930B0108958095809395
:10019000340280930B0108951092C50087E080938C
:1001A000C400E0ECF0E0808182608083E1ECF0E06C
:1001B00080818860808380818064808308950F932C
:1001C0001F93CF93DF93182F092FE82FF92FEF01FB
:1001D00009900020E9F72197CE1BDF0B2FE330E0D9
:1001E000A0913502B0913602A95CBD4FFD0101908E
:1001F0000020E9F73197EA1BFB0BC9018E1B9F0B0F
:100200008C179D0768F3F89460913502709136025F
:10021000695C7D4F87E392E00E94240287E392E0CD
:10022000612F702F0E94190210923602109235022F
:100230008091320290913302009799F0109233022C
:10024000109232028091350290913602FC01E95CF5
:10025000FD4F2081019690933602809335022093C2
:10026000C6007894DF91CF911F910F910895CF939D
:10027000C82F8A3019F48DE00E9437018FEF9FE379
:10028000A2E081509040A040E1F700C00000C09380
:10029000C60081E090E0CF910895CF93C82F8A30B7
:1002A00019F48DE00E944D018091C00085FFFCCFC4
:1002B000C093C60081E090E0CF910895CF93C82FFE
:1002C0008A3019F48DE00E945E018FEF9FE3A2E077
:1002D00081509040A040E1F700C00000C093C600EC
:1002E000CF910895CF93DF93EC0102C00E945E018D
:1002F00089918823D9F7DF91CF910895CF93DF9328
:10030000FC0162E070E00E94F201EB0122E030E0CB
:1003100008C0CF01B9010E94F201009741F02F5FA0
:100320003F4FC217D307ACF781E090E002C080E0F6
:1003300090E0DF91CF9108951F920F920FB60F9228
:100340000BB60F9211242F938F939F93EF93FF93EC
:10035000E0913502F0913602E95CFD4F20812223C5
:1003600039F481E090E0909333028093320216C01A
:100370002A3049F4E0913502F0913602E95CFD4FF4
:100380008DE0808309C080913502909136020196FC
:1003900090933602809335022093C600FF91EF912F
:1003A0009F918F912F910F900BBE0F900FBE0F90CA
:1003B0001F9018950E94CC007894CAE0D0E080E0AD
:1003C00092E00E94DF008DE092E00E94DF008BE16E
:1003D00092E00E94DF00219791F78AE292E00E946A
:1003E000DF00FFCF97FB092E07260AD077FD04D048
:1003F0000CD006D000201AF4709561957F4F0895B7
:10040000F6F7909581959F4F0895AA1BBB1B51E16C
:1004100007C0AA1FBB1FA617B70710F0A61BB70B74
:10042000881F991F5A95A9F780959095BC01CD0119
:100430000895FB01DC010D900020E9F71197019070
:100440000D920020E1F70895FB01DC0101900D926F
:0A0450000020E1F70895F894FFCFB3
:10045A0049206C6F766520796F752E0A00596F7581
:10046A00206C6F7665206D652E0A004865206C6FDA
:10047A00766573206865722E0A00456E6421212113
:04048A000A00010063
:00000001FF
