:100000000C9472000C9494000C9494000C94940042
:100010000C9494000C9494000C9494000C94940010
:100020000C9494000C9494000C9494000C94940000
:100030000C9494000C9494000C9494000C949400F0
:100040000C9494000C9494000C9494000C949400E0
:100050000C9494000C9494000C9494000C949400D0
:100060000C9494000C9494000C9494000C949400C0
:100070000C9494000C9494000C9494000C949400B0
:100080000C9494000C9494000C9494000C949400A0
:100090000C9494000C9494000C9494000C94940090
:1000A0000C9494000C9494000C9494000C94940080
:1000B0000C9494000C9494000C9494000C94940070
:1000C0000C9494000C9494000C9494000C94940060
:1000D0000C9494000C9494000C9494000C94940050
:1000E0000C94940011241FBECFEFD1E2DEBFCDBF30
:1000F00000E00CBF12E0A0E0B2E0EAE1F2E000E0D4
:100100000BBF02C007900D92A030B107D9F71BBEFC
:1001100012E0A0E0B2E001C01D92A130B107E1F70A
:100120000E94F0000C940B010C9400008FEF809360
:100130000B0180930A01089510920B0110920002A6
:1001400008958FEF80930B0180930002089521E0C2
:1001500030E002C0220F331F8A95E2F7209580918C
:10016000000228232093000220930B01089521E030
:1001700030E002C0220F331F8A95E2F7809100021F
:10018000822B8093000280930B01089580958093C9
:10019000000280930B0108951092C50087E08093C0
:1001A000C400E0ECF0E0808182608083E1ECF0E06C
:1001B0008081886080830895CF93C82F8A3019F496
:1001C0008DE00E94DC008FEF9FE1A1E08150904024
:1001D000A040E1F700C00000C093C600CF91089591
:1001E0001F93CF93DF930E94CC00CAE0D0E00BC0F6
:1001F000812F0E94DC001F5F1B35D1F78AE00E942F
:10020000DC00219711F011E4F3CF80E090E0DF9162
:0A021000CF911F910895F894FFCFDD
:00000001FF
