:100000000C9472000C9494000C9494000C94940042
:100010000C9494000C9494000C9494000C94940010
:100020000C9494000C9494000C9494000C94940000
:100030000C9494000C9494000C9494000C949400F0
:100040000C9494000C9494000C9494000C949400E0
:100050000C9494000C9494000C9494000C949400D0
:100060000C9494000C9494000C9494000C945A01F9
:100070000C9494000C9494000C9494000C949400B0
:100080000C9494000C9494000C9494000C949400A0
:100090000C9494000C9494000C9494000C94940090
:1000A0000C9494000C9494000C9494000C94940080
:1000B0000C9494000C9494000C9494000C94940070
:1000C0000C9494000C9494000C9494000C94940060
:1000D0000C9494000C9494000C9494000C94940050
:1000E0000C94940011241FBECFEFD1E2DEBFCDBF30
:1000F00000E00CBF12E0A0E0B2E0EAEEF3E000E0C6
:100100000BBF02C007900D92AE33B107D9F71BBEEB
:1001100012E0AEE3B2E001C01D92A938B107E1F7E9
:100120000E948F010C94F3010C9400008FEF8093D8
:100130000B0180930A01089510920B0110923E0268
:1001400008958FEF80930B0180933E02089521E084
:1001500030E002C0220F331F8A95E2F7209580918C
:100160003E02282320933E0220930B01089521E0B4
:1001700030E002C0220F331F8A95E2F780913E02E1
:10018000822B80933E0280930B010895809580938B
:100190003E0280930B010895CF93C82F8A3019F443
:1001A0008DE00E94CC008091C00085FFFCCFC09301
:1001B000C60081E090E0CF91089580E392E09093B3
:1001C0008602809385021092C50087E08093C40068
:1001D000E0ECF0E0808182608083E1ECF0E08081FF
:1001E000886080838081806480830895BC0183E47B
:1001F00092E00E94EC012091430281E090E0909314
:10020000400280933F022093C6000895CF93C82FE9
:100210008A3019F48DE00E9406018FEF9FE3A2E07F
:1002200081509040A040E1F700C00000C093C6009C
:1002300081E090E0CF910895CF93C82F8A3019F4D0
:100240008DE00E941C018FEF9FE3A2E0815090405F
:10025000A040E1F700C00000C093C600CF91089510
:10026000CF93DF93EC0102C00E941C018991882387
:10027000D9F7DF91CF910895CF93DF93FC0162E02E
:1002800070E00E94C501EB0122E030E008C0CF0120
:10029000B9010E94C501009741F02F5F3F4FC2177F
:1002A000D307ACF781E090E002C080E090E0DF91FE
:1002B000CF9108951F920F920FB60F920BB60F9227
:1002C00011242F938F939F93EF93FF9380913F027D
:1002D00090914002FC01ED5BFD4F2081222339F417
:1002E00081E090E090934202809341020CC02A305A
:1002F00019F48DE0808305C00196909340028093AD
:100300003F022093C600FF91EF919F918F912F9113
:100310000F900BBE0F900FBE0F901F9018950E946C
:10032000DD0078941092420210924102CAE0D0E0BF
:1003300080E092E00E94F60080914102909142029A
:100340000097D1F310924202109241028CE092E0A9
:100350000E94F60080914102909142020097D1F3F1
:10036000109242021092410289E192E00E94F6004E
:1003700080914102909142020097D1F32197C1F6FA
:1003800088E292E00E94F600FFCF97FB092E072635
:100390000AD077FD04D00CD006D000201AF4709556
:1003A00061957F4F0895F6F7909581959F4F089539
:1003B000AA1BBB1B51E107C0AA1FBB1FA617B7078B
:1003C00010F0A61BB70B881F991F5A95A9F78095A7
:1003D0009095BC01CD010895FB01DC0101900D92C7
:0A03E0000020E1F70895F894FFCF24
:1003EA0049206C6F766520796F750A00596F752000
:1003FA006C6F7665206D650A004865206C6F7665BE
:10040A0073206865722E0A00456E642121310A0044
:0E041A000000000200000000CC000000000006
:00000001FF
